:100000000C9442000C946A000C946A000C946A00F0
:100010000C946A000C946A000C946A000C946A00B8
:100020000C946A000C946A000C946A000C946A00A8
:100030000C946A000C94E9000C946A000C946A0019
:100040000C946A000C946A000C946A000C946A0088
:100050000C946A000C946A000C946A000C946A0078
:100060000C946C000C946A00010204050608090A4D
:1000700010111214151618191A20212224252628C9
:10008000292A7A0211241FBECFEFD8E0DEBFCDBFF0
:1000900011E0A0E0B1E0EEEAFFE002C005900D92B1
:1000A000A830B107D9F722E0A8E0B1E001C01D9265
:1000B000A135B207E1F710E0C2E4D0E004C0219717
:1000C000FE010E94C807C134D107C9F70E946E0221
:1000D0000C94D5070C9400000F930FB70F931F9348
:1000E0002F93EF93FF9320910E011091B900187F89
:1000F0001036C0F4012F06950695ECE0F1E0E00F14
:100100000027F01F0591F491E02F09949200D80088
:10011000D80098009200B10092009200BC009200BA
:10012000C200C2001093080122602F7700E845C08A
:1001300022FD02C023FF04C02C7F00910C013AC0B5
:1001400000910901002381F10A9500930901E091D2
:100150000A01F0910B010191E0930A01F0930B0168
:1001600029C022FFEDCF2B7F216000910D0101609E
:1001700000930D0105EA21C0009109010130E0F072
:1001800005EC1BC00091BB00E0910A01F0910B014E
:100190000193E0930A01F0930B01009109010A9584
:1001A00000930901183551F72F77206105E905C043
:1001B00000910D010093BB0005E80093BC00209363
:1001C0000E01FF91EF912F911F910F910FBF0F9192
:1001D00018950F930FB70F9300914F02039500935B
:1001E0004F0229F4009150020395009350020F91A1
:1001F0000FBF0F911895FC017183608382E08683A5
:10020000558344830895FC01A081B1818D919C9117
:100210009383828316820895FC0186818230A1F047
:10022000811110C0A081B1818D919C912281338177
:10023000821B930B21E0448155818417950708F4B4
:1002400020E026838681089580E00895FC01608384
:100250000895742FA901272FFC0180810C948E0131
:10026000742FA901272FFC0180810C94AC0180938D
:10027000B8001092B90084E08093BC0010920E0187
:10028000089580910E01881F8827881F08950E9475
:100290004101882319F00E946A02F9CF08958091E4
:1002A0000E01827008950F931F93CF93DF9300D0B8
:1002B0001F92CDB7DEB78B012B834A8389830E94BF
:1002C0004701109208012B8120930E0190910E019D
:1002D0004A81898190FF02C0816001C08E7F809336
:1002E0000D0110930B0100930A014093090185EA67
:1002F0008093BC000E946A0280910E0187FDFACFB4
:1003000080910E018695817091E089270F900F9062
:100310000F90DF91CF911F910F9108950F931F932D
:10032000CF93DF9300D01F92CDB7DEB78A012B8326
:100330006A8389830E9447016A8160930C0124E8E3
:100340004B81B80189810F900F900F90DF91CF9171
:100350001F910F910C9453010F931F93CF93DF9331
:1003600000D01F92CDB7DEB78A012B836A838983C1
:100370000E9447016A8160930C0128E84B81B80113
:1003800089810F900F900F90DF91CF911F910F9166
:100390000C945301CF93DF93FC01EB01C115D10500
:1003A00009F45BC0219131914191B8E0AFB7F89465
:1003B000409A37FD01C0409837FD00C000000000A2
:1003C0000000000000000000330FBA95409881F74C
:1003D000B7E0409A27FD01C0409827FD00C000000B
:1003E00000000000000000000000220FBA954098B5
:1003F00081F70000409A27FD01C0409827FD00C00A
:1004000000000000000021913191B7E04098000009
:100410000000409A47FD01C0409847FD00C0000021
:1004200000000000000000000000440FBA95409852
:1004300081F70000409A47FD01C0409847FD00C089
:1004400000000000B8E0219719F041914098B0CF2A
:100450000000409800000000AFBFDF91CF910895E9
:100460008CEFEFE0F1E0DF011D928A95E9F7089546
:10047000843560F490E0FC01EE0FFF1F8E0F9F1F8C
:10048000FC01E15FFE4F408351836283089590E059
:100490009C01260F311D253531057CF423E0629F38
:1004A000A00111249C01220F331F820F931F60E0D3
:1004B00070E0815F9E4F0C94CE07089564E570E074
:1004C0008FE091E00C94CA01389A40980E94300263
:1004D0000C945E028BE092E00C941C0778948BE005
:1004E00092E00E94DF048BE092E00E946A050E9485
:1004F0006A02F9CF8BE092E00C942B06CF92DF9248
:10050000EF92CF93DF93843050F56A3040F5C4E129
:100510008C9FC02D1124823008F0CC5F862F90E094
:100520009595879560FF03C0D9E0D81B01C0D82FEF
:100530006901E42E64E18C2F0E944702CD0F6E2DDD
:10054000A6018C2F0E9438026E2DA6018AE08C0F26
:10055000DF91CF91EF90DF90CF900C943802DF9134
:10056000CF91EF90DF90CF900895CF92DF92EF92EE
:10057000CF93DF93803127E2920768F56A01E62E78
:1005800068EE73E00E94B407EC014E2D960180E006
:100590000E947E02CE0164E670E00E94B407EC0186
:1005A0004E2D960181E00E947E02CE016AE070E04D
:1005B0000E94B407C82F4E2D960182E00E947E0251
:1005C0004E2D96016C2F83E0DF91CF91EF90DF905D
:1005D000CF900C947E02DF91CF91EF90DF90CF907F
:1005E00008950F931F93CF93DF93803127E29207F3
:1005F00078F5EB01288139814A8168EE73E00E9429
:10060000B4078C0180E00E947E022B813C814D81E9
:10061000C80164E670E00E94B4078C0181E00E948A
:100620007E022E813F814885C8016AE070E00E9409
:10063000B407182F82E00E947E0229853A854B85F7
:10064000612F83E0DF91CF911F910F910C947E0277
:10065000DF91CF911F910F910895843068F4282F76
:1006600030E03595279580FF03C083E0821B01C0F1
:10067000822F885D0C9438020895962F9F706073C6
:1006800070E024E0759567952A95E1F748EE53E010
:10069000649F9001659F300D749F300D1124B90146
:1006A00044E6949F600D711D1124282F207730E0BF
:1006B00044E0359527954A95E1F79AE0929FA0018D
:1006C000939F500D11249B01240F351F8F70A9019A
:1006D000480F511DCA010895CF93DF93EC010E948A
:1006E0004101811153C088AD882391F09E01265CA1
:1006F0003F4F49E060E0CE01C6960E9430010E9463
:100700004F01811101C018AEDF91CF910C944F01C0
:1007100089AD81113BC09E01265C3F4F49E060E0FE
:10072000CE01C6960E9429010E944F01811102C08C
:1007300081E089AF0E944F01811128C08AAD87FFF7
:1007400005C08F778AAF81E088AF1EC09DA9911147
:100750001BC0982F9077969596959695292F220FE6
:10076000220F920F8F70890F8A8B6CAD8BAD0E9418
:100770003D039C8B8B8BFE01EE5BFF4F80818A31AA
:1007800010F48D8B01C01D8A81E08DABDF91CF917C
:1007900008954C962CE0FC0111922A95E9F70895F2
:1007A000E42FF0E0E859FF4FE491462F4695D90138
:1007B00083E09E2F9370913011F44C9305C09230DA
:1007C00011F46C9301C01C921196E695E695815048
:1007D00081F70895EF92FF920F931F93CF93DF93CA
:1007E0001F92CDB7DEB77C01FC0151A5523091F1CB
:1007F000533009F45CC0513009F088C08C01045EAC
:100800001F4F62A56295607F615F980144A559837F
:100810000E94D003F701848D958DA68D878F90A3BC
:10082000A1A332A559813F301CF08FEF83A70CC0E4
:1008300031110AC0F70153A784A590E001966AE13F
:1008400070E00E94B40784A7F70183A5380F32A790
:10085000B8014FC0FC0162A56295607F615F9C0199
:100860002E5D3F4F44A50E94D003F70182A193A1C2
:10087000A4A185A396A3A7A322A52F301CF08FEFD8
:1008800083A70DC021110BC081E0F70183A784A5C8
:1008900090E001966AE170E00E94B40784A7F70136
:1008A00083A5280F22A7B701645E7F4F22C08C0169
:1008B000045E1F4FFC0182A58295807F6FE0680F68
:1008C000980144A5C7010E94D003F701848D958D3E
:1008D000A68D878F90A3A1A382A393A3A4A385A38E
:1008E00096A3A7A382A5882311F0815082A7B801FF
:1008F000F70185A596A50E94F1020F90DF91CF9197
:100900001F910F91FF90EF900C945E020F90DF917A
:10091000CF911F910F91FF90EF900895EF92FF926A
:100920000F931F93CF93DF9300D01F92CDB7DEB705
:100930008C017B010E943002F80142A950E09289AB
:10094000818990FF03C0282F30E004C02AE030E006
:10095000281B3109429FC001439F900D529F900D6B
:1009600011246AE070E00E94B407603108F460E18D
:100970009E012F5F3F4FF8014589C8010E94D003B7
:1009800029813A814B81F80182896FE00E94A80792
:10099000642FA9010E942D03F80146895789608DB3
:1009A000C7010E94B5020E945E020F900F900F9047
:1009B000DF91CF911F910F91FF90EF900895CF930A
:1009C000DF93EC016EE082E00E948E0780ED97E0FD
:1009D00090938700809386000E946402CE010A965D
:1009E0000E9403016B897C89CE01DF91CF910C9429
:1009F0008E041F93CF93DF93FC0121A56217B9F1F9
:100A0000162FEC01613069F038F06230A9F06330E4
:100A100069F58FE082A721C0638974890E948E04E2
:100A200025C08389948996A785A712A66BA714A6CB
:100A3000CF010E94C90311C012A681E083A714A6AA
:100A4000CF010E94C9038E899F89A88D8C8F9D8FAD
:100A5000AE8F8F8F98A3A9A309C08E899F89A88D77
:100A60008AA39BA3ACA38DA39EA3AFA319A7DF91D9
:100A7000CF911F910895CF93DF93EC010E946C03F7
:100A800089AD882311F19AAD892F80778695869557
:100A90008695282F220F220F820F9F70890F9A8927
:100AA000981791F0198A8A8B6CAD8BAD0E943D032B
:100AB0009C8B8B8B29A5211105C0BC01CE010E9406
:100AC0008E0402C00E94A20719AECE01DF91CF9121
:100AD0000C94EA030F931F93CF93DF93EC018C01E7
:100AE000065F1F4FC8010E940C01882369F0C801EE
:100AF0000E94030189898F5F898BCE01DF91CF919D
:100B00001F910F910C943B05DF91CF911F910F9195
:100B10000895EF92FF920F931F93CF93DF93EC0111
:100B20008B01673389E0780790F584E6E82EF12C95
:100B3000CB01B7010E94B407CC9748F51A8A1C8BE9
:100B40000B8BB801CE010E948E048A896AE00E9454
:100B5000A80782958077982B2AAD2078922B9AAFA0
:100B600081E088AFC80168EE73E00E94B407262FC9
:100B700022952073B7010E94B407622B6CAF6AE024
:100B800070E00E94B40762956077682B6BAFDF91CD
:100B9000CF911F910F91FF90EF9008950F931F93A6
:100BA000CF93DF931F92CDB7DEB78C0169830E948C
:100BB000A207FC018081F80180A781A569818130AD
:100BC00051F028F0823059F0833069F020C0611173
:100BD0001EC061E014C061111AC062E010C066233B
:100BE000B1F063E00CC0611112C0F80182A581115F
:100BF00005C065A576A5C8010E94890560E0C80109
:100C00000F90DF91CF911F910F910C94F9040F90E9
:100C1000DF91CF911F910F910895CF93DF93EC0156
:100C2000603118F480E18AAB01C06AAB9E012A5E94
:100C30003F4F4D896AA9CE010E94D00389A5811139
:100C400007C06B897C89CE01DF91CF910C948E0413
:100C5000DF91CF910895CF93DF93EC0184E091E091
:100C6000998388830E94A2079B838A83DD83CC8338
:100C700087B1817F87B988B18E6088B91F82198654
:100C800086B18E7088870E94A50744E650E0BC01BB
:100C9000CE010A960E94FB00198A1A8A1C8A1B8AB6
:100CA0001DAA60EDCE01C6960E94260118AE19AEAF
:100CB0001D8A8FE78AAB9E012A5E3F4F40E06FE7B7
:100CC000CE010E94D003198E1A8E1B8E19A6CE015A
:100CD0000E94C90387E480937C00EAE7F0E087EB99
:100CE000808310927B0080818064808319AA1CAA73
:100CF0001BAA80E5DF91CF910C9437010F931F93CE
:100D0000CF93DF931F92CDB7DEB78C0149830E944A
:100D1000A207DC018C91F80180A781A5498181306F
:100D200081F120F0823009F44CC06FC0D801858970
:100D3000840F8A3138F014161CF4F801158A04C0A7
:100D400089E1D80155968C9398012A5E3F4FF801AE
:100D5000458962A9C8010E94D003D80153966D91BC
:100D60007C915497C8010E948E04F801EE5BFF4FFE
:100D7000D80155968C915597808381E0D8968C93B5
:100D800044C0F80185A596A58436910528F447FF4F
:100D900003C08450974F12C0F4E64F02800D911D9E
:100DA0001124803629E0920730F4D8019E969C9356
:100DB0008E939D972AC080569940F80196A785A7E3
:100DC00024C025A536A5C90164E670E00E94B407D9
:100DD000892B29F447FF03C0255C3F4F13C0240F24
:100DE000311D47FD3A95C90164E670E00E94B407E1
:100DF000CC9730F4D8019E963C932E939D9705C0D6
:100E00002C533109F80136A725A70F90DF91CF9118
:100E10001F910F910895FC01462F9781690F6783F9
:100E200082819381009739F0DC01ED91FC91019072
:100E3000F081E02D099408950F931F93CF93DF93D2
:100E4000EC018F818823C1F1EA81FB8180819E8141
:100E5000891B8330E0F11F8216B1012F0E70888547
:100E60000817A9F1802781FF10C0212F22708C81E3
:100E70009D81009751F0DC01ED91FC9161E0211121
:100E800060E00280F381E02D0995CE01029628856D
:100E900023FD05C013FF03C012FF09C006C022FFD7
:100EA00009C012FD07C013FF02C061E001C06FEF6F
:100EB0000E940B0708870BC086B18E709885891732
:100EC00031F0EA81FB8180818E8381E08F83809184
:100ED0007A0084FF1EC080917800909179009CABCD
:100EE0008BAB2FA538A9820F931F98AB8FA787EBE9
:100EF00080937A0089A98F5F982F907C11F489AB39
:100F000008C019AA68A96095CE010E940D0618AA0A
:100F10001FA6DF91CF911F910F910895962F937087
:100F200090938000660F68718770682B60938100D2
:100F30001092820081E080936F0010925002109214
:100F40004F0208958FE492E008958FE492E00895AF
:100F5000991B79E004C0991F961708F0961B881F0B
:100F60007A95C9F780950895AA1BBB1B51E107C06C
:100F7000AA1FBB1FA617B70710F0A61BB70B881F29
:100F8000991F5A95A9F780959095BC01CD010895B8
:100F9000EE0FFF1F0590F491E02D0994DC0101C0D4
:0E0FA0006D9341505040E0F70895F894FFCF54
:080FAE00000000007E06CE05E4
:00000001FF
